{
  "_format": "hh-sol-artifact-1",
  "contractName": "bettingPlatform",
  "sourceName": "contracts/bettingPlatform.sol",
  "abi": [
    {
      "inputs": [
        {
          "internalType": "uint256",
          "name": "_answer",
          "type": "uint256"
        }
      ],
      "name": "adminAnswer",
      "outputs": [],
      "stateMutability": "nonpayable",
      "type": "function"
    },
    {
      "inputs": [
        {
          "internalType": "uint256",
          "name": "_betamount",
          "type": "uint256"
        },
        {
          "internalType": "uint256",
          "name": "_answer",
          "type": "uint256"
        },
        {
          "internalType": "address payable",
          "name": "_better",
          "type": "address"
        }
      ],
      "name": "bet",
      "outputs": [],
      "stateMutability": "payable",
      "type": "function"
    },
    {
      "inputs": [],
      "name": "betCounter",
      "outputs": [
        {
          "internalType": "uint256",
          "name": "",
          "type": "uint256"
        }
      ],
      "stateMutability": "view",
      "type": "function"
    },
    {
      "inputs": [
        {
          "internalType": "uint256",
          "name": "",
          "type": "uint256"
        }
      ],
      "name": "bets",
      "outputs": [
        {
          "internalType": "address",
          "name": "better",
          "type": "address"
        },
        {
          "internalType": "uint256",
          "name": "betamount",
          "type": "uint256"
        },
        {
          "internalType": "uint256",
          "name": "answer",
          "type": "uint256"
        },
        {
          "internalType": "uint256",
          "name": "id",
          "type": "uint256"
        }
      ],
      "stateMutability": "view",
      "type": "function"
    },
    {
      "inputs": [],
      "name": "counter",
      "outputs": [
        {
          "internalType": "uint256",
          "name": "",
          "type": "uint256"
        }
      ],
      "stateMutability": "view",
      "type": "function"
    },
    {
      "inputs": [],
      "name": "getAll",
      "outputs": [
        {
          "components": [
            {
              "internalType": "address",
              "name": "better",
              "type": "address"
            },
            {
              "internalType": "uint256",
              "name": "betamount",
              "type": "uint256"
            },
            {
              "internalType": "uint256",
              "name": "answer",
              "type": "uint256"
            },
            {
              "internalType": "uint256",
              "name": "id",
              "type": "uint256"
            }
          ],
          "internalType": "struct bettingPlatform.Bet[]",
          "name": "",
          "type": "tuple[]"
        },
        {
          "internalType": "uint256",
          "name": "",
          "type": "uint256"
        }
      ],
      "stateMutability": "view",
      "type": "function"
    },
    {
      "inputs": [],
      "name": "uploadQuestion",
      "outputs": [],
      "stateMutability": "nonpayable",
      "type": "function"
    }
  ],
  "bytecode": "0x6080604052600360025534801561001557600080fd5b50610945806100256000396000f3fe6080604052600436106100705760003560e01c806372de8bd41161004e57806372de8bd41461010c578063a416f5ab14610128578063c11b56ca14610153578063e64a1fbb1461016a57610070565b806322af00fa1461007557806353ed5143146100b557806361bc221a146100e1575b600080fd5b34801561008157600080fd5b5061009c600480360381019061009791906104d7565b610193565b6040516100ac9493929190610554565b60405180910390f35b3480156100c157600080fd5b506100ca6101e3565b6040516100d89291906106bb565b60405180910390f35b3480156100ed57600080fd5b506100f661031d565b60405161010391906106eb565b60405180910390f35b61012660048036038101906101219190610744565b610327565b005b34801561013457600080fd5b5061013d61043c565b60405161014a91906106eb565b60405180910390f35b34801561015f57600080fd5b50610168610442565b005b34801561017657600080fd5b50610191600480360381019061018c91906104d7565b610454565b005b60006020528060005260406000206000915090508060000160009054906101000a900473ffffffffffffffffffffffffffffffffffffffff16908060010154908060020154908060030154905084565b606060008060015467ffffffffffffffff81111561020457610203610797565b5b60405190808252806020026020018201604052801561023d57816020015b61022a61045e565b8152602001906001900390816102225790505b50905060005b60015481101561030f576000808281526020019081526020016000206040518060800160405290816000820160009054906101000a900473ffffffffffffffffffffffffffffffffffffffff1673ffffffffffffffffffffffffffffffffffffffff1673ffffffffffffffffffffffffffffffffffffffff16815260200160018201548152602001600282015481526020016003820154815250508282815181106102f1576102f06107c6565b5b6020026020010181905250808061030790610824565b915050610243565b508060025492509250509091565b6000600154905090565b6000831161036a576040517f08c379a0000000000000000000000000000000000000000000000000000000008152600401610361906108ef565b60405180910390fd5b60405180608001604052808273ffffffffffffffffffffffffffffffffffffffff168152602001848152602001838152602001600154815250600080600154815260200190815260200160002060008201518160000160006101000a81548173ffffffffffffffffffffffffffffffffffffffff021916908373ffffffffffffffffffffffffffffffffffffffff1602179055506020820151816001015560408201518160020155606082015181600301559050506001600081548092919061043290610824565b9190505550505050565b60015481565b60036002819055506000600181905550565b8060028190555050565b6040518060800160405280600073ffffffffffffffffffffffffffffffffffffffff1681526020016000815260200160008152602001600081525090565b600080fd5b6000819050919050565b6104b4816104a1565b81146104bf57600080fd5b50565b6000813590506104d1816104ab565b92915050565b6000602082840312156104ed576104ec61049c565b5b60006104fb848285016104c2565b91505092915050565b600073ffffffffffffffffffffffffffffffffffffffff82169050919050565b600061052f82610504565b9050919050565b61053f81610524565b82525050565b61054e816104a1565b82525050565b60006080820190506105696000830187610536565b6105766020830186610545565b6105836040830185610545565b6105906060830184610545565b95945050505050565b600081519050919050565b600082825260208201905092915050565b6000819050602082019050919050565b6105ce81610524565b82525050565b6105dd816104a1565b82525050565b6080820160008201516105f960008501826105c5565b50602082015161060c60208501826105d4565b50604082015161061f60408501826105d4565b50606082015161063260608501826105d4565b50505050565b600061064483836105e3565b60808301905092915050565b6000602082019050919050565b600061066882610599565b61067281856105a4565b935061067d836105b5565b8060005b838110156106ae5781516106958882610638565b97506106a083610650565b925050600181019050610681565b5085935050505092915050565b600060408201905081810360008301526106d5818561065d565b90506106e46020830184610545565b9392505050565b60006020820190506107006000830184610545565b92915050565b600061071182610504565b9050919050565b61072181610706565b811461072c57600080fd5b50565b60008135905061073e81610718565b92915050565b60008060006060848603121561075d5761075c61049c565b5b600061076b868287016104c2565b935050602061077c868287016104c2565b925050604061078d8682870161072f565b9150509250925092565b7f4e487b7100000000000000000000000000000000000000000000000000000000600052604160045260246000fd5b7f4e487b7100000000000000000000000000000000000000000000000000000000600052603260045260246000fd5b7f4e487b7100000000000000000000000000000000000000000000000000000000600052601160045260246000fd5b600061082f826104a1565b91507fffffffffffffffffffffffffffffffffffffffffffffffffffffffffffffffff8203610861576108606107f5565b5b600182019050919050565b600082825260208201905092915050565b7f42657420616d6f756e74206d7573742062652067726561746572207468616e2060008201527f7a65726f00000000000000000000000000000000000000000000000000000000602082015250565b60006108d960248361086c565b91506108e48261087d565b604082019050919050565b60006020820190508181036000830152610908816108cc565b905091905056fea26469706673582212203b0bd054d8c4738d96f0ca1571beed0ed2ee0e989b73823ceff890233bd6039a64736f6c63430008110033",
  "linkReferences": {},
  "deployedLinkReferences": {}
}